:020000040800F2
:10000000B00F00209D010008F1420008CF2D00082C
:1000100001370008FD070008154D0008000000002A
:10002000000000000000000000000000B5460008CD
:10003000CD0800080000000065460008B74600082B
:10004000B7010008B7010008B7010008B7010008B0
:10005000B7010008B7010008B7010008B7010008A0
:10006000B7010008B7010008B7010008B701000890
:10007000B7010008B7010008B7010008B701000880
:10008000B7010008B7010008B7010008B701000870
:10009000B7010008B7010008B7010008B701000860
:1000A000B7010008B7010008B7010008B701000850
:1000B00095470008B7010008B7010008B70100081C
:1000C000B7010008B7010008B7010008B701000830
:1000D000B7010008094D0008B7010008B701000882
:1000E000B7010008B7010008B7010008B701000810
:1000F000B7010008B7010008B7010008B701000800
:10010000B7010008B7010008B7010008B7010008EF
:10011000B7010008B7010008B7010008B7010008DF
:10012000B7010008B701000839080008B701000846
:10013000B7010008B7010008B7010008B7010008BF
:10014000B7010008B7010008B7010008B7010008AF
:10015000B7010008B701000845080008B70100080A
:10016000B7010008B7010008B7010008B70100088F
:10017000B7010008B7010008B7010008000000003F
:10018000B7010008B7010008DFF80CD000F020FB31
:1001900000480047DD670008B00F00200648804790
:1001A00006480047FEE7FEE7FEE7FEE7FEE7FEE75C
:1001B000FEE7FEE7FEE7FEE7414700088901000889
:1001C0002DE9F05F0546002092469B46884606468C
:1001D000814640241BE0284641464746224600F01F
:1001E00060FA53465A46C01A914110D31146184638
:1001F000224600F047FA2D1A67EB01084F462246C7
:100200000120002100F03EFA17EB00094E41201EAC
:10021000A4F10104DFDC484631462A464346BDE8E6
:10022000F09F00000649074A0868504343F239022C
:10023000104408604008704701490860704700009A
:100240007C0000206D4EC641D2B201E000F8012BC7
:10025000491EFBD270470022F6E710B513460A4646
:1002600004461946FFF7F0FF204610BD2DE9FE4F6A
:10027000804681EA0300C00F0C46009021F0004147
:1002800023F00045B8EB0200A94105D240462146C3
:1002900090461C460B46024623F00040104347D0D0
:1002A000270DC7F30A00C3F30A510290401A0190C8
:1002B00040286BDAC3F3130040F4801B0098924689
:1002C00020B10023D2EB030A63EB0B0B01985946D4
:1002D000C0F14002504600F0D5F906460D465046A2
:1002E0005946019A00F0EDF910EB08006141002435
:1002F00087EA115284EAE7731A4340D0009A62B346
:10030000019A012A4FEA075215DC001B61EB02013A
:100310004FF0004202EA0752CDE90042001C41F5CD
:10032000801132462B4600F0EDF903B0BDE8F08FA6
:1003300040462146F9E7001B61EB0201001C41F534
:10034000801300185B412018A2F5001747EB03014A
:1003500040EAD570B6196D4111E06D084FEA3606D6
:1003600045EAC0754FEA0752001B61EB0201001C11
:1003700041F5801149084FEA3000001951413246D9
:100380002B4603B0BDE8F04F00F0ADB90098012254
:1003900040000023D0EB020263EBE073009821469B
:1003A0004FEAE074B8EB000061EB0401E9E783F089
:1003B00000435BE781F0004158E72DE9FE4F81EAF9
:1003C000030404F0004421F0004100944FF0000BBE
:1003D00023F0004350EA01045ED052EA03045BD0EC
:1003E000C3F30A54C1F30A552C44A4F2F334019424
:1003F000A0FB0254C1F3130141F48011C3F31303B2
:1004000043F4801301FB024400FB034E840A970A65
:1004100044EA815447EA8357A4FB076802958D0A92
:1004200005FB07854FEA932C04FB0C542705029D1E
:100430004FEA065847EA1637B5EB08056EEB070C8E
:10044000870E920E47EA811742EA8312A7FB020148
:10045000B6EB0B0164EB00042B0D43EA0C335E1882
:1004600044EB1C50DA465146E7FB0201C5F3130486
:100470004FEA0B3343EA14534FEA0432019C43EA38
:100480000603A4F10C040294009CCDE900B400F032
:1004900039F903B0BDE8F08F00200146F9E72DE9F6
:1004A000F04D81EA030404F0004B21F000451446AE
:1004B0004FF0000A23F0004150EA050220D054EA30
:1004C00001021DD0C5F30A570246C5F31303C1F359
:1004D0001300C1F30A5640F4801543F48013A7EBD0
:1004E0000608101BD64608F2FD3873EB050002D350
:1004F00008F1010801E092185B41B8F1000F03DA3E
:1005000000200146BDE8F08D00204FF48011064622
:1005100084460EE0171B73EB050705D3121B63EB34
:10052000050306434CEA010C49084FEA30009218D3
:100530005B4150EA0107EDD152EA030012D082EA92
:10054000040083EA0501084305D0101BAB4106D225
:100550000122002306E000224FF0004302E06FF08A
:10056000010253101AEB06004CEB085110EB0A0085
:1005700041EB0B01BDE8F04D00F0B5B80EB5C10F71
:1005800080EAE0700844CA07002140F233438DE856
:100590000E000A460B4600F0B5F803B000BD0EB5DC
:1005A00040F2334102910021CDE900110A460B4689
:1005B00000F0A8F803B000BD70B5C1F30A5201F015
:1005C00000450024C1F3130140F2FF3341F48011D0
:1005D0009A4201DA002070BD40F233439A42A2F2FF
:1005E000334203DC524200F05CF800E090402C43C0
:1005F000F1D0404270BD000030B5041E71F100041E
:1006000004DB4FF00044404264EB0101141E73F11F
:10061000000405DB1C464FF00043524263EB040329
:100620008B4208BF824230BD30B5041E71F1000418
:1006300004DB4FF00044404264EB0101141E73F1EF
:10064000000405DB1C464FF00043524263EB0403F9
:10065000994208BF904230BD30B50B46014600209C
:100660002022012409E021FA02F59D4205D303FA74
:1006700002F5491B04FA02F52844151EA2F10102F5
:10068000F1DC30BD202A04DB203A00FA02F1002020
:1006900070479140C2F1200320FA03F319439040C0
:1006A0007047202A04DB203A21FA02F0002170472B
:1006B00021FA02F3D040C2F12002914008431946CA
:1006C0007047202A06DBCB17203A41FA02F043EAB2
:1006D000E07306E041FA02F3D040C2F120029140FB
:1006E00008431946704710B5141E73F1000408DA68
:1006F000401C41F1000192185B411A4301D120F0E6
:10070000010010BD2DE9F04D92469B4611B1B1FAA2
:1007100081F202E0B0FA80F220329046FFF7B2FF99
:1007200004460F4640EA0A0041EA0B0153465A4686
:10073000084313D0114653EA010019D0C8F1400212
:100740005046FFF7AEFF05460E4650465946424614
:10075000FFF798FF084305D0012004E02046394602
:10076000BDE8F08D0020054346EAE0762C43374390
:100770000A986305E40AA0EB08000022FD0A44EA97
:1007800047540A3002D500200146E9E70105101957
:100790006941DDE9084500196941BDE8F04DA2E76E
:1007A000C1F30A52C1F3130140F2FF3341F4801147
:1007B0009A4202DA00200146704740F233439A42DF
:1007C000A2F2334202DC5242FFF76BBFFFF75ABF7F
:1007D000064C074D06E0E06840F0010394E807008E
:1007E00098471034AC42F6D3FFF7D2FCD083000810
:1007F000F0830008002800DC40427047FEE700005C
:100800000B48818890F83C2011FB02F309490B80CA
:10081000C38813FB02F34B8003895B1C53435B1EAD
:100820008B804089401C5043401EC88070470000A8
:10083000700B00205C000020014801F0C9B90000E5
:10084000A0070020014801F0C3B900000008002003
:1008500001681823CAB2103AB2FBF3F2054B6FF3EA
:100860000901032A9B5CC36500D9091D81650846FF
:10087000704700006C68000810B5014600208B69C5
:100880008A6A4FF0C07453B1B3F5005F15D072B1EE
:10089000012A0CD0022A0AD0032A09D104E01AB195
:1008A000012A06D0022A03D1C96AC90100D5012054
:1008B00010BDC96AA142FAD010BD002AF7D0012AA2
:1008C000F2D0022AF3D0032AF3D010BD7047000003
:1008D0002DE9FC5F15460746DFF88080284401902B
:1008E000D8F838201C460E46214452688946904765
:1008F000D8F83820781B49465268824690477119CB
:1009000038190090D8F83820894652689047D8F8AE
:100910003820711B8B46526800989047002C1AD0E3
:10092000D8F83810361B45464A680198314690473A
:10093000AA6B3146504652689047A86B3C1B49460B
:10094000426820469047AA6B59462046526802B03A
:10095000BDE8F05F1047BDE8FC9F0000700B002071
:100960002DE9F04106461F48069F1C46007B1546B0
:10097000884680071AD457B915E02888414637F8C9
:100980001020304602F0EAFC641EAD1C761C002CE0
:10099000F3DCBDE8F0812A884146304602F0DEFCF7
:1009A000641EAD1C761C002CF5DCF2E75FB916E086
:1009B000288828B137F810204146304602F0CEFC96
:1009C000641EAD1C761C002CF2DCE2E72A881AB10A
:1009D0004146304602F0C2FC641EAD1C761C002C61
:1009E000F4DCD6E7700B002010B59F280CD87F29C7
:1009F0000AD8062423071C80044C20800720188076
:100A0000218005201880228010BD000000000260B7
:100A10007047000070B5B3F5804F05D06FF070419E
:100A200040F82210002070BD50F82240084B8E89FB
:100A30001C40D1E9003543EA05138D6889692D0210
:100A400045EA06452B430B43234340F82230E9E7B0
:100A50000000F0CFF0B50C6850F82430114A134074
:100A6000D1E90125D1E903672A433E4332434E6968
:100A700032438E693243CE6932430E6A32434E6A44
:100A800032438E6A3243CE6A3243CE6B096B3243B5
:100A90000A431A43082D01D142F0400240F82420B5
:100AA0000020F0BD8000F0FF30B500EB82025068FE
:100AB0008D8900F04043D1E9000440EA04108C68BD
:100AC000240244EA054420430C8A074D05EB0454F4
:100AD00020430C7D6D0105EB0464896920430843C4
:100AE00018435060002030BD0000F0FF2DE9F74FA3
:100AF00014468A46DFF8A0B002FB04F002EBD47182
:100B000000EB6106DBF81000AAEB04080AEB04090D
:100B100048B1B0F90610494500DA8946B0F902003B
:100B2000404500DD80460025274615E0AAEB05017B
:100B3000414510DB49450EDC05FB05F007FB0702CC
:100B4000B24201DD7F1EF9E7DBF838300098C219A8
:100B50001B68C01B98476D1CA542E7DB0025274694
:100B600016E000BF0AEB0501414510DB49450EDCEC
:100B700005FB05F007FB0702B24201DD7F1EF9E726
:100B8000DBF838300098C2191B68C01B98476D1CF1
:100B9000A542E7DBBDE8FE8F700B00202DE9F04792
:100BA0008146884640F2C32050434FF47A7190FB4F
:100BB000F1F502FB02F002EBD27100EB6106174681
:100BC0000023414648466D1CFFF782FE012413E0D6
:100BD00004FB04F007FB0700B04206DD3B4622465B
:100BE00041464846FFF774FE7F1E3B46224641467B
:100BF0004846FFF76DFE641CAC42E9DDBDE8F087B6
:100C00002DE9FF4780463F4816461D46027D0F46A8
:100C1000012A1CD0A8EB0600791B50EA01036ED014
:100C2000A2F1010905F026F900F58060824600F086
:100C300003FE00FB09F4504600F002FE00FB09F140
:100C4000002C0BDAC4F500708012404209E004B0B9
:100C500032464046BDE8F04700F056B804F500744F
:100C6000A012002904DAC1F5007189124C4202E099
:100C700001F500718C12002804DD411C01EBD171DB
:100C8000491003E000EBD0714910401E00EBD0701A
:100C90004210002C04DD601C00EBD070401003E01B
:100CA00004EBD4704010641E04EBD47308EB010411
:100CB000ADF800403C18ADF80240A8EB02045B1010
:100CC000B21AADF80440ADF808203144FC1AEA1A13
:100CD000ADF80C102844ADF80A20ADF80E00002342
:100CE000ADF806401A460421684600F007F9394677
:100CF000404604F0DFFA2946304604F0DBFABDE84E
:100D0000FF870000700B00202DE9F84F0E4680464B
:100D1000A2EB08049D1B994692464FF0000B54EA43
:100D2000050017D02046FFF765FD07462846FFF768
:100D300061FD87420ADA20462C4605464046B04609
:100D400006465046CA4681464FF0010B002C07DD8F
:100D5000204606E031464046BDE8F84F00F056B860
:100D60006042A04203D064426D42D0464E4604EB3E
:100D7000D4704FEA6009002D01DAC9F10009DFF8EB
:100D800088A04FF000079AF8160080B131E000BF4C
:100D900005FB079090FBF4F03044BBF1000F0AD044
:100DA000DAF8382008EB0701526890477F1CA74209
:100DB000EEDDBDE8F88FDAF8381008EB07034A6873
:100DC00001461846F1E700BF05FB079090FBF4F0E1
:100DD00030440090384604F0E5FA48B9BBF1000F02
:100DE0000AD0DAF8380008EB07014268009890470B
:100DF0007F1CA742E8DDDCE7DAF8381008EB0700D3
:100E00004A680099F3E70000700B0020064B1A7D3A
:100E1000012A05D0521E02EBD272521000F006B821
:100E20009A6B526810470000700B00202DE9F05FAC
:100E30000646884640F2C32050434FF47A7190FB37
:100E4000F1F702FB02F002EBD27100EB610B2149DA
:100E50001446301B896B32447F1C0B68414698470F
:100E6000012533E005FB05F004FB040159451ADDBB
:100E7000BC4217DD174B06EB050AA6EB05099B6B79
:100E8000AAF1010208EB04011B6809F1010098476F
:100E9000104BAAF10102A8EB04019B6B09F10100C0
:100EA0001B689847641E0B4B3219301B9B6B924694
:100EB00008EB05011B6881469847064B5246A8EB94
:100EC00005019B6B48461B6898476D1CBD42C9DDF8
:100ED000BDE8F09F700B002070B514460E46054625
:100EE0000119001B00F084FA224631462846FFF71C
:100EF000FDFDBDE8704000F02FBA00002DE9FF4F66
:100F000040F6FF740F46664283B09B46814600213F
:100F10000BE000BF09EB8100B0F90200A04200DA4B
:100F20000446B04200DD0646491CB942F2DB654882
:100F3000006900280DD0B0F90620A2EB0B01B142E8
:100F400000DA0E46B0F90200A0EB0B00A04200DD73
:100F50000446B1E0DFF870A100200546CAF80000A1
:100F600086E0781E854201DA6B1C00E0002309EB65
:100F7000850C09EB8302BCF90200B2F90210A04211
:100F800042D1A14214D139F92330059A39F92510FB
:100F900003EB020C4B4A0598926B084404EB0B01DF
:100FA0001368604501DA624629E00246604626E0A1
:100FB0002846A4464FF000087A1E0BE008B1401EF8
:100FC00000E0781E09EB8003B3F90230634504D1D9
:100FD00008F101089045F1DB2346A34247D01A1BD4
:100FE00039F92500A1EB040C059B92EA0C0F08D4FB
:100FF000344A184404EB0B01926B1368024698477D
:1010000035E003F0E5FE32E0A14230D001DBA04242
:1010100003DDA0422BDBA14229DCE04688420ADC4A
:101020000346A04223DC0846A14220DBB8F900C0F9
:10103000B2F9001008E00B46A14218DCA04216DB12
:10104000B2F900C0B8F90010E21AA1EB0C0151434B
:101050000029A0EB030202DD01EB620102E0A1EB3B
:101060006201491CC01A91FBF0F06044C9E76D1C95
:10107000BD42FFF676AF0598009004EB0B0001909F
:1010800000208046054612E01049B8F1000F31F902
:1010900015A008D0009901EB0A0208440949896BA0
:1010A0000B680199984788F0010850466D1C064965
:1010B00009688D42E8DB641CB4427FF74BAF07B090
:1010C000BDE8F08F700B00206C000020580B002052
:1010D0002DE9F04FDFF824B191B04FF0FF35BBF9A7
:1010E00022200692DBF81830BBF924909C69A18974
:1010F000814206D8E289824203D3471AD4F800809D
:1011000012E0D4E9018100296AD00A88824267D8B6
:101110004D88854264D3801A496880B201EB800013
:10112000B0F90070B0F90250781C59D0187DA17C3C
:1011300010FB01FA217CCDE90801BBF92A60304699
:1011400002F05EF9C0B207FB0A810E90A27C012773
:10115000CDF814B00297CDE90321DBF81800DDE9E2
:101160000832C17D807DCDE900014946069801F035
:10117000A3FE681C16D046F0020002F041F9A27CE2
:1011800005FB0A81CDE9041BCDE90272DBF81800EA
:10119000DDE90832C17D807DCDE900014946069830
:1011A00001F08AFEDBF818005D46417D007D81423A
:1011B00013D9022E11D086F0040002F021F9A8699B
:1011C000037D427D13FB029102EB0903857D099AA1
:1011D000069812FB050201F09FFF0E9802F010F92D
:1011E000DBF81830BBF92210627C9B7D12FB0311E7
:1011F000ABF8221011B0BDE8F08F0000700B00209A
:10120000034880698169807D497C11FB00F070474B
:10121000700B0020022008807047806982898A4212
:1012200002D8C2898A4207D2806838B102888A42CD
:1012300004D84088884201D30120704700207047BD
:101240002DE9F0432B4C054687B0A069B4F92A601C
:101250002946806900F050F8002848D0416800888D
:10126000281A01EBC0053046AF7802F0C9F8814674
:1012700068680121CDE90404CDE90217A069C27DA7
:10128000817DCDE90012037D2A78B4F92410B4F9E8
:10129000220001F011FEA069417D027D91421BD91F
:1012A000C07D11FB00F812FB00F7022E14D000F0F5
:1012B0007BF9064600F06AF900F0FEF9B4F9220065
:1012C00029784218B4F9241001EB0803394401F0DD
:1012D00023FF304600F0F0F9484602F091F8A26989
:1012E000B4F922006978927D11FB0200608407B096
:1012F000BDE8F083700B002006E002888A4202D825
:1013000042888A4202D280680028F6D170470000E5
:1013100070B5094D04462146A8698069FFF7ECFFC6
:10132000002808D041680088201A11F83000A96907
:10133000897D10FB01F070BD700B0020012008803A
:10134000704710B58069FFF7D7FF002800D0012053
:1013500010BD03F0E1BC000010B503F0B9FF034875
:10136000816903488163011D016110BD40000020B7
:10137000700B0020064B30B493F83D4024B993F82D
:101380003C30584359435A4330BCFFF7A5BD0000D9
:10139000700B002070B50024002800DA00200A1A23
:1013A0009F2A01DD00F19F01814201DA01460124FB
:1013B0000B4D0C4AAB6B5E689662936102F124039D
:1013C000094E1E60AB63094B1360C2E9010103F0D3
:1013D0001DFDFFF715FA03481C302861204670BD3B
:1013E000700B002040000020E5510008B80A0020E2
:1013F000044A92F83C2090FBF2F091FBF2F1FFF7E7
:10140000C9BF0000700B002010B50021084600F095
:10141000F9F840F6FF725042BDE81040134601460D
:10142000AFF300802DE9F04180461D4616460F4679
:10143000042001F0E5FF04462B463246394640467B
:1014400001F06AFE2046BDE8F04101F0D9BF00007E
:101450002DE9FC47060055D000F0AEF8384C814627
:10146000B4F9228000F0B8F8A18C0746C81BA0840C
:101470003EE000BF47F6FF71304600F09DF982461E
:101480000146304600F07EF9054694F82C0000F045
:10149000030001283CD0022836D00020618C6A4627
:1014A000081A6084ADF80000691E0844ADF8040015
:1014B000A08CADF80200A9F101010844ADF80600C6
:1014C0005146304600F046F9BDF80200A08451466E
:1014D000304600F029F9064430780A281AD00D2841
:1014E00018D0BDF8000028446084307818B1761C0C
:1014F00030780028BED1A08C3844A084A08D20F084
:101500000300A085BDE8FC8705EBD5704010C5E75A
:101510002846C3E794F82C0000F0030001280BD004
:10152000022809D0208C608430780A28DDD1A18C73
:1015300001EB0900A084D8E7A4F82280F4E70000BA
:10154000700B0020024B59849A84FFF781BF000082
:10155000700B00202DE9F04107460A4815460E465B
:10156000B0F92C0040F0020000F0C0F804462A4612
:1015700031463846FFF7E6FF2046BDE8F04100F06F
:10158000B5B80000700B0020FFF708BB10B501F0E4
:10159000E5FDBDE8104001F011BE00000149896978
:1015A00049680847700B002010B501F0DDFDBDE86B
:1015B000104001F003BE000003488069417DC07DFA
:1015C00011FB00F070470000700B00200148007D07
:1015D00070470000700B00200949002091F82C1082
:1015E00001F00C020649042A896906D0082A01D0B4
:1015F0000C2A01D1087D40087047087D401E7047C5
:10160000700B002070B50D4603F0C0FE044628465E
:1016100003F0C2FE204370BD70B513492E20087040
:1016200000F096F8114C251D201D256101F086FE65
:101630000F48A0630F482561A06101202075032099
:1016400084F83C006FF0704020636063002001F07C
:1016500099FE6FF07F4001F0B7FE0748E061BDE8FA
:10166000704001F0C7BD000070000020700B00202A
:10167000E0680008DC6F00088C680008B0F9022000
:10168000B1F906309A4213DCB1F90220B0F9063004
:101690009A420DDCB0F90020B1F904309A4207DC1F
:1016A000B1F90010B0F90400814201DC012070475B
:1016B0000020704701F066BE01F086BE024A9169C3
:1016C00000B1906108467047700B002002494A7DC6
:1016D0004875104670470000700B002002490A7DD3
:1016E0000875104670470000700B0020024AB2F9DE
:1016F0002C10908508467047700B00202DE9F041B2
:10170000084E04460568F069016828468847074680
:10171000F069416828468847284420603846BDE87B
:10172000F0810000700B00202DE9F0410C460646C8
:101730000025064F05E0F8694168304688470644B1
:101740000544641EF7D22846BDE8F081700B0020E6
:10175000704700001CB5094B1B681BB16A4603F0BB
:1017600069FB1CBD1368009352680192044ABDF8DE
:1017700000305384BDF802309384EFE778000020F6
:10178000700B002073B50D460098002478B109490C
:101790008969096949B10A68294690477CBD68464C
:1017A000FFF7ACFFFFF7FAFE04446D1EF7D52046A5
:1017B0007CBD0000700B002073B50D46009800241E
:1017C00080B109498969096951B14A682946904738
:1017D0007CBD6846FFF792FF20B10A2802D0641C46
:1017E000AC42F6DB20467CBD700B002010B502E059
:1017F00000F8011B521E0AB18307F9D1930818D0D3
:1018000001EB014402F0030204EB042406E010C0E3
:101810001B1F10C040F8084B40F8044C042BF6DAAC
:1018200001E010C05B1E002BFBD102E000F8011BA1
:10183000521E002AFAD110BD00F58060AFF300807F
:1018400010B50022C0F30B00B0F5006F02DD0122DD
:10185000A0F50060B0F5806F01DDC0F50060831178
:101860000B4C00F03F00C0F1400134F81300484336
:10187000402906D004EB4303C1F140015B8803FB20
:10188000010020308009002A00D0404210BD000035
:101890009C6800084FF0C04140200880C2480022E8
:1018A000028001220280022202800322028004229E
:1018B000028005220280072202800822028009227B
:1018C00002800A2202800C2202800D2202800F2256
:1018D000028010220280122202801322028015222E
:1018E000028016220280182202801A2202801B2205
:1018F00002801D2202801F220280212202802222D9
:1019000002802422028026220280282202802A22AB
:1019100002802C2202802E2202803022028033227A
:10192000028035220280372202803A2202803C2245
:1019300002803E2202804022028043220280452211
:101940000280472202804A2202804C2202804F22DB
:1019500002805122028053220280562202805822A5
:1019600002805B2202805D2202806022028062226D
:10197000028066220280682202806B2202806D2231
:1019800002807022028072220280752202807822F8
:1019900002807A2202807D2202807F220280412200
:1019A0000A80002202800222028004220280062293
:1019B0000280082202800A2202800C2202800E226B
:1019C000028010220280122202801422028016223B
:1019D0000280182202801A2202801C2202801E220B
:1019E00002802022028022220280242202802622DB
:1019F0000280282202802A2202802C2202802E22AB
:101A0000028030220280322202803422028036227A
:101A10000280382202803A2202803C2202803E224A
:101A20000280412202804322028045220280472216
:101A30000280492202804B2202804D2202804F22E6
:101A400002805122028053220280552202805722B6
:101A50000280592202805B2202805D2202805F2286
:101A60000280612202806322028065220280672256
:101A70000280692202806B2202806D2202806F2226
:101A800002807122028073220280752202807722F6
:101A90000280792202807B2202807D2202807F22C6
:101AA000028042220A80002101800221018003215C
:101AB00001800521018007210180092101800B217E
:101AC00001800D2101800E21018010210180122151
:101AD00001801421018016210180182101801A2122
:101AE00001801C2101801E210180202101802221F2
:101AF00001802421018026210180282101802A21C2
:101B000001802C2101802D2101802F210180312194
:101B10000180332101803521018037210180392165
:101B200001803B2101803E21018040210180422132
:101B300001804421018046210180482101804A2101
:101B400001804C2101804E210180502101805321D0
:101B500001805521018057210180592101805B219D
:101B600001805D2101805F2101806121018063216D
:101B7000018065210180672101806A2101806C213B
:101B800001806E2101807021018073210180752107
:101B9000018077210180792101807B2101807D21D5
:101BA00001807F21018070470000026090F83510AD
:101BB000022903D08021416501207047052180F86A
:101BC00035100068016821F00101016000207047B4
:101BD0002DE9F84304464FF00009CDF80090634822
:101BE0004FF41651A56D0068B0FBF1F72E6894F81C
:101BF0005C10082000FA01F131420FD021680A6818
:101C000052070BD50A6822F004020A6094F85C10AF
:101C10008840A860606D40F00100606594F85C1039
:101C20004FF0010808FA01F0304208D021684969F4
:101C3000090604D5A860606D40F00200606594F864
:101C40005C1004208840304208D021680968890768
:101C500004D5A860606D40F00400606594F85C10E5
:101C600010208840304218D021680968090714D52F
:101C7000A86020680168490304D50068000308D5FE
:101C8000A16C07E00168C90503D4016821F00801CF
:101C90000160216C09B12046884794F85C1020202F
:101CA0008840304231D021680968C9062DD5A86026
:101CB00094F8350005282068016806D0490347D507
:101CC000006800031DD4616C1CE021F01601016066
:101CD0002068416921F080014161206C08B9A06C45
:101CE00020B12068016821F00801016094F85C10BF
:101CF0003F208840A86084F8349084F83580216DB6
:101D00001FE0E16B09B120468847606D00282BD0A9
:101D1000606DC00714D0052084F835002068016884
:101D200021F0010101600098401C0090B84203D8E6
:101D300020680068C007F6D184F8349084F83580B4
:101D4000E16C002910D001B02046BDE8F0430847FF
:101D50000168C905D5D4016821F01001016084F83B
:101D6000349084F83580CCE7BDE8F8833C0000204F
:101D70002DE9F041044600F095F906465CB10025D6
:101D800084F83450022084F835002068016821F07E
:101D9000010101600DE00120BDE8F08100F082F951
:101DA000801B052805D920206065032084F83500B4
:101DB000F2E720680068C007F0D122681168204867
:101DC0000140D4E901031843D4E9033633431843EF
:101DD00063691843A3691843E3691843236A1843E6
:101DE0000843616A042903D1D4E90B13194308435A
:101DF000106020684069666A20F0070130460E4393
:101E0000012704280CD1A06A0643E06A40B12046AD
:101E1000FEF732FD20B14020606584F83570BAE7E6
:101E2000206846612046FEF713FD94F85C203F21B0
:101E300091408160656584F835700020ACE7000052
:101E40003F8010F070B5044600F02CF90546601C88
:101E500002D004480078044400F024F9401BA0425A
:101E6000FAD370BD30000020F0B587B01421684669
:101E7000FEF7F1F915480168002924D1012101601C
:101E800013480024016841F0010101600068022547
:101E900000F0010005904FF68070CDE9000502AA20
:101EA00003260C2782E8D00069460A4800F016F89D
:101EB0004CF6B370CDE9000502AA694682E8D0006D
:101EC000054800F00BF807B0F0BD00002800002026
:101ED0003838024000100240000C02402DE9F84F53
:101EE000DFF87CB100224FF001084FF0030A4FF0F9
:101EF0000F090BF1040E00BF0B6808FA02F423402F
:101F0000A3426ED14D68022D01D0122D0ED1D508FD
:101F100000EB850CDCF820505607F70E09FA07F69F
:101F2000B5430E69BE402E43CCF8206006685500CC
:101F30000F790AFA05FC07F0030726EA0C06AF4002
:101F4000374307604E68012E05D0022E03D0112EB4
:101F500001D0122E0ED18668CF6826EA0C06AF405B
:101F6000374387604668A6430C79C4F30014944055
:101F700034434460C6688C6826EA0C06AC4034439F
:101F8000C4604C68E40065D5364C256845F480454E
:101F90002560246822F0030504F480440094324C48
:101FA0002E19D6F8084895072F0F09FA07F5AC4304
:101FB0002E4DA84201D1002524E02D4DA84201D18B
:101FC00001251FE02B4DA84201D102251AE02A4D20
:101FD000A84201D1032515E0284DA84202D10425CD
:101FE00010E037E0264DA84201D105250AE0254D35
:101FF000A84201D1062505E0234DA84201D10725BD
:1020000000E00825BD402543C6F80858DBF800402D
:102010005D464E689C43F60300D51C432C60DEF8F9
:10202000004075464E689C43B60300D51C432C60A7
:102030000B4D08352C684E689C43F60200D51C43B6
:102040002C60074D0C352C684E689C43B60200D5B9
:102050001C432C60521C102AFFF44EAFBDE8F88FD1
:10206000003C014044380240003001400000024082
:102070000004024000080240000C02400010024030
:102080000014024000180240001C0240426931EA7C
:10209000020200D10904816170470AB18161704771
:1020A0000904FBE701488068704700003000002009
:1020B0000248816802781144816070473000002036
:1020C0000B4810B5016841F400710160016841F4EA
:1020D00080610160016841F480710160032000F0BB
:1020E0006FF8002000F006F800F024F8002010BD82
:1020F000003C024070B50D4D04464FF47A712878CB
:10210000B1FBF0F00A490968B1FBF0F000F00DFBFB
:1021100048B9102C07D200222146501E00F030F89A
:1021200000206C6070BD012070BD000030000020F8
:102130003C0000200A4808B5016841F48041016074
:10214000006800F4804000900548001F016841F0DD
:1021500080510160006800F08050009008BD0000D0
:1021600044380240002809DB00F01F0201219140A1
:102170004009800000F1E020C0F800117047000025
:10218000F0B40E4B1B680C46C3F30223C3F10705E2
:10219000042D00D90425191D072901D2002300E0D0
:1021A000DB1E012606FA05F1491E214099409E409A
:1021B000761E16403143F0BC03F058B90CED00E038
:1021C000064900F0070208684FF6FF03184040EA8E
:1021D0000220034A10430860704700000CED00E045
:1021E0000000FA052DE9F0470E46050065D0DFF83E
:1021F0001481D8F80000F7B200F00F00B04207D207
:1022000088F80070D8F8000000F00F00B04254D1F8
:1022100028683D4C810712D5400703D5206840F45B
:10222000E05020602878000703D5206840F4604023
:1022300020602068A96820F0F0000843206028781A
:10224000C0072DD0304968680839012812D002280B
:1022500013D0032811D00968890700292DDA2168D5
:1022600021F0030101432160FFF71CFF814641F289
:10227000883A0EE009688903EFE709688901ECE70D
:10228000FFF710FFA0EB0901514502D90320BDE87B
:10229000F0872068696800F00C00B0EB810FEFD187
:1022A000D8F80010404601F00F01B14207D907707D
:1022B000006800F00F00B04201D00120E7E7287865
:1022C000400705D52068E96820F4E0500843206005
:1022D0002878000706D52068296920F4604040EA84
:1022E000C100206000F036F82168084AC1F30311EC
:1022F000515CC840064908600020FFF7FBFE002043
:10230000C5E70000003C024008380240746800083D
:102310003C0000200448054900680968044AC1F3EC
:102320008221515CC84070473C00002008380240C0
:10233000846800080448054900680968044AC1F334
:102340004231515CC84070473C00002008380240D0
:1023500084680008154810B5006810F00C02144895
:1023600013D04110042A0FD0082A0ED10F4C241F7D
:102370002268236802F03F025B0207D52068C0F3A1
:102380008810A0FB010106E0084610BD2168C1F3DA
:102390008811A1FB00010023FDF712FF2168C1F3A2
:1023A0000141491C4900B0FBF1F010BD0838024062
:1023B0000024F4002DE9F84F050076D02878DFF8E6
:1023C000F8B2BE4CC00749D0DBF800105846C1F344
:1023D0008101012908D00068C0F3810002280AD1D8
:1023E000201D0068400206D52068800336D5686845
:1023F0000028E2D032E06868B0F5803F10D0B0F538
:10240000A02F206810D020F480302060206820F4B5
:10241000802020606868A0B1FFF744FE06460CE00B
:10242000206840F48030F4E740F480202060F7E733
:10243000FFF738FE801B642873D820688003F7D527
:102440000CE0FFF72FFE064605E000BFFFF72AFE6F
:10245000801B6428F0D820688003F7D42878DFF840
:10246000608280074FF000093ED5DBF80010584627
:1024700011F00C0F09D00068C0F3810002280BD1C5
:102480008D48001F0068400206D42068800715D5DB
:10249000E868012809D111E0E868B8B10120C8F85E
:1024A0000000FFF7FFFD064605E002E1FFF7FAFD39
:1024B000801B0228C0D820688007F7D520682969CA
:1024C00020F0F80040EAC10020600DE0C8F800905C
:1024D000FFF7E8FD064604E0FFF7E4FD801B022855
:1024E0001FD820688007F7D42878000722D5724EBD
:1024F000744869696C3671B101210160FFF7D2FD42
:10250000074604E0FFF7CEFDC01B022809D830685B
:102510008007F7D50EE0C0F80090FFF7C3FD07462F
:1025200005E083E0FFF7BEFDC01B02287ED83068BF
:102530008007F7D42878400768D5DFF87CA100270A
:102540000AF1380ADAF80000C0000BD4DAF80010FB
:1025500041F08051CAF80010DAF80000012700F0BD
:1025600080500090584E3068C00510D4306840F458
:1025700080703060FFF796FD009005E0FFF792FD58
:102580000099401A022851D83068C005F6D54A4E45
:10259000A868683601280FD00528306810D020F0D0
:1025A00001003060306820F004003060A868B8B1E5
:1025B000FFF778FD00900FE0306840F00100F4E78D
:1025C00040F004003060F7E7FFF76CFD0099411A16
:1025D00041F28830814264D830688007F4D50EE03B
:1025E000FFF760FD009007E0FFF75CFD0099411ADE
:1025F00041F28830814254D830688007F4D42FB13A
:10260000DAF8001021F08051CAF80010A869C0B3B0
:10261000DBF80010C1F3810102294AD002284846A4
:1026200007D0C8F86000FFF73DFD00E039E005463F
:102630003AE04746C8F86000FFF734FD064604E07C
:10264000FFF730FD801B02282BD820688001F7D4CB
:10265000D5E907010843A96A1C4A490802EB014170
:102660006A6A41EA8211084395F82C1040EA016138
:102670001148001F016001203866FFF713FD054671
:1026800005E014E0FFF70EFD401B022809D8206882
:102690008001F7D50BE000BFFFF704FD401B0228C7
:1026A00002D90320BDE8F88F20688001F4D400200F
:1026B000F8E70120F6E70000083802400038024041
:1026C00000004742800E4742007000400000FFFFBC
:1026D00070B515460E46040003D094F8490010B1B9
:1026E00007E0012070BD002084F84800204600F07B
:1026F0001AF804F108012068FEF7ACF93146A26827
:102700002068FEF7D1F9D4E901022946236BFEF7D0
:1027100081F9A168206850F8212042F0010240F8B8
:102720002120002070BDFFF79FBB10B5401EB0F107
:10273000807F01D3012010BD4FF0E02460610F21A4
:10274000601702F093FE0020A061072020610020A6
:1027500010BD7047704770B590F83C20012A19D021
:10276000012400F83C4F0222427050F83C3C5A6869
:102770009D6822F070060A684968324325F080059A
:1027800029435A6050F83C2C91604470002101703C
:10279000084670BD022070BD10B5040003D094F847
:1027A0003D0010B107E0012010BD002084F83C007E
:1027B000204600F00DF8022084F83D00211D20681D
:1027C00001F0EEFF012084F83D00002010BD000064
:1027D00008B50068B0F1804F12D10A48016841F095
:1027E000010101600068002200F001000090114624
:1027F0001C20FFF7C5FCBDE808401C20FFF7B2BC59
:1028000008BD0000403802400168CA6842F0010279
:10281000CA600068816801F00701062903D00168D9
:1028200041F0010101600020704770B5044690F846
:102830003C00012817D0012584F83C50022084F880
:102840003D002068826822F0770222F47F42826095
:102850000868502830D00DDC20284DD005DC98B316
:1028600010283BD148E0022070BD302844D04028D9
:1028700034D139E0602828D0702806D0B0F5805FC8
:102880002CD0B0F5005F29D10AE0CB68D1E9012155
:10289000206801F0E9FF2068816841F0770109E0D4
:1028A000CB68D1E90121206801F0DEFF2068816852
:1028B00041F48041816011E0CA684968206801F0F4
:1028C000E5FF5021206807E016E0CA6849682068E3
:1028D00001F0EDFF6021206801F0D0FF84F83D5049
:1028E000002084F83C0070BDCA684968206801F087
:1028F000CDFF40212068EFE7226801461046EBE754
:10290000704770B50446006801694FF00005C9437F
:10291000890715D4C168C943890711D4E91E01612B
:1029200001202077206880698007204602D0FFF7C9
:10293000E7FF04E000F098F8204600F096F82577CD
:1029400020680169C943490717D4C168C9434907C9
:1029500013D46FF0040101610220207720688069A0
:1029600010F4407F204602D0FFF7CAFF04E000F0D9
:102970007BF8204600F079F8257720680169C94383
:10298000090716D4C168C943090712D46FF00801BA
:102990000161042020772068C0698007204602D0AA
:1029A000FFF7AEFF04E000F05FF8204600F05DF8AE
:1029B000257720680169C943C90617D4C168C9438E
:1029C000C90613D46FF01001016108202077206838
:1029D000C06910F4407F204602D0FFF791FF04E069
:1029E00000F042F8204600F040F8257720680169A1
:1029F000C943C90708D1C168C943C90704D1891EA1
:102A00000161204600F032F820680169C9430906D7
:102A100009D4C168C943090605D46FF0800101617A
:102A20002046FFF796FE20680169C943490609D48C
:102A3000C168C943490605D46FF0400101612046D1
:102A400000F034F820680169C94389060BD4C168D5
:102A5000C943890607D46FF0200101612046BDE813
:102A60007040FFF777BE70BD7047704710B50949D9
:102A70000068096888420CD1074C08A0216802F060
:102A8000CDFC00202060BDE8104004210648FFF77F
:102A9000FDBA10BD20070020240000204670733AC4
:102AA00025640D0A000000000010024070477047C6
:102AB00070B5026804461068D168536910F00F0FB2
:102AC00050D003F0010501F4907635435DD0C20784
:102AD00005D0CA0503D5E26B42F00102E26342076A
:102AE00005D5DA0703D0E26B42F00202E263820707
:102AF00005D5DA0703D0E26B42F00402E263020775
:102B000005D5DA0703D0E26B42F00802E263E26B1C
:102B1000002A33D0800604D5880602D5204601F06D
:102B2000EEFE20684069E16BC0F38010090700D415
:102B300028B3204601F0D5FE2068416949061AD520
:102B4000416921F040014161606BA0B11B49016501
:102B5000606BFFF72BF8002810D0606B016DBDE8AB
:102B600070400847830610D58B060ED52046BDE879
:102B7000704001F0C4BE2046FFF799FF70BD2046AB
:102B8000FFF795FF0020E06370BD030606D50B0636
:102B900004D52046BDE8704002F052B84006F3D597
:102BA0004806F1D5D168204621F04001D1602021AE
:102BB00084F8391000F00AF970BD0000D34800080D
:102BC00070B5040004D094F83900002510B106E077
:102BD000012070BD84F83850204600F023F82420EE
:102BE00084F839002068C16821F40051C160204692
:102BF00001F0D0FE2068016921F490410161206854
:102C0000416921F02A0141612068C16841F4005105
:102C1000C160E563202084F8390084F83A00002080
:102C200070BD00002DE9F04186B0064614216846CB
:102C3000FDF711FB3149306888425CD130480024EF
:102C4000016841F010010160006800F0100005907B
:102C50002B481438016841F00101016000686946A1
:102C600000F0010005904FF4C06000900220019038
:102C70000120029003200390072004902148FFF7D1
:102C80002DF9224D20484FF000672860C5E90174F6
:102C90004FF48068C5E903486C614FF44030AC6183
:102CA000C5E9074028466C62FFF762F808B1FDF7F6
:102CB000AFFE7563AE63154D134860357830E5E8B7
:102CC00002074020A5E81101104845F8144960307A
:102CD000AC61EC612C626C62FFF74AF808B1FDF759
:102CE00097FE3563002211462520AE63FFF748FAB0
:102CF0002520FFF737FA06B0BDE8F081001001404B
:102D0000443802400000024040640240A007002016
:102D100070472DE9F843044690F839001F461646DF
:102D20000D46202850D1A5B19EB194F83800012855
:102D30004AD0012084F838004FF00008C4F83C80E5
:102D4000212084F83900FFF7ADF9A6848146E68496
:102D500026E00120BDE8F883E08C401EE084A068F6
:102D60004B46B0F5805F4FF000024FF080012046E7
:102D7000009703D001F095FFE8B90DE001F091FF55
:102D8000C8B928882168C0F308004860206908B1E4
:102D90006D1C05E0AD1C03E0216815F8010B4860CF
:102DA000E08C0028D8D14B460022402120460097D5
:102DB00001F077FF08B10320CCE7202084F8390028
:102DC00084F838800020C5E70220C3E77047FEE79B
:102DD00010B501F05DFC4FF0C043A02018801B4CE3
:102DE00000202080012018802080022018800320ED
:102DF000208018800120208026201880002020803C
:102E00002720188000202080FEF744FD43201880F2
:102E1000012020805A201880002020806020188007
:102E20000120208061201880372020800620188013
:102E3000002020800720188000202080A1201880FA
:102E40000020208018808020208010BD00000260BB
:102E500030B5C3B213FB02F500F47F4300F47F04E6
:102E60005343C2F10F005443C0B2CAB212FB005226
:102E700001F47F4501F47F0105FB003301FB0044B1
:102E80000F2092FBF0F1CAB293FBF0F194FBF0F04B
:102E900001F47F4100F47F001144084430BD00F08C
:102EA000C3B9C0F3C401C0F38522C0F3C44000EB32
:102EB000421000EBC12070472DE9F04F05468DB060
:102EC0007648DDF860901A9C00681E4617464FF061
:102ED000000888B11B9A199BCDE90442CDE9029301
:102EE000DDE91623CDE90023046833463A46284637
:102EF000A0470DB0BDE8F08FDDE91602EB1901EB3C
:102F0000060C10435B1EACF1010C012806D0C9F180
:102F100008000590002002910990BBE0604AB2F9D8
:102F20000680A8EB0100002807DD361A002EE0DD40
:102F30004146DDF8648000FB0844B2F90A00ACEBBE
:102F40000000002802DD361A002ED2DDB2F908009A
:102F5000181A002800DD3F1AB2F904200020AA4206
:102F600033DD501B3F1A4B46B9F1040F1FD004DC70
:102F7000012B0CD0022B28D111E0494AB2F90420D0
:102F8000521B2A44082B1AD0102B1ED119E020F016
:102F9000070204EBE004154400F0070015E020F000
:102FA000030204EBA004154400F003000DE020F040
:102FB000010204EB6004154400F0010005E0044444
:102FC00001E004EB400415460020002F91DD1B9A20
:102FD000199BCDE9030248468DE8190033463A466D
:102FE000284600F023F984E71799029808440B90CB
:102FF0002B49401E0090B1F90620824242DC08466F
:10300000B0F90A10029881423CDB4FF0000B0395A7
:10301000DA46089434E000BFBBF1000F05D10898F0
:103020004FF0080B10F8018B08900599ABEB090BDA
:1030300038FA01F008FA09F101F0FF0803D1184944
:10304000097B890716D4164949880A911B9921B131
:1030500031F810101248418001E01149488016995A
:103060000398009B4218521E029900F055F80C4933
:103070000A984880039916980AF1010A08440390B7
:10308000BA45C9DB0998401C09900B980290199821
:1030900004440998B042A7DB2BE700007800002029
:1030A000700B00200D4B30B4B3F906408C4212DC9B
:1030B000B3F90A408C420EDBB3F90440844200DDD0
:1030C0002046B3F90830934200DA1A46824202DB06
:1030D00030BC00F003B930BC70470000700B00201A
:1030E0000C4AB2F906308B4213DCB2F90A308B423B
:1030F0000FDBB2F9043083420BDCB2F908308342B3
:1031000007DB137BDB0701D000F02DB9528800F0FC
:1031100025B97047700B002030B40F4CB4F904503F
:10312000854200DD2846B4F90850954200DA2A4667
:1031300082420EDBB4F906508D4200DD2946B4F917
:103140000A409C4200DA23468B4202DB30BC00F08E
:10315000E3B830BC70470000700B002001480088C5
:1031600070470000700B0020014840887047000045
:10317000700B002010B500F004F8BDE8104000F01E
:103180001DB87CB505460C46684600F0D7F8BDF979
:103190000000A8420BDCBDF90400A84207DBBDF922
:1031A0000200A04203DCBDF90600A04201DA0020C3
:1031B0007CBD2146284600F0BDF87CBD00F0C6B8B5
:1031C0001F2300F01F01C0F3451210B5C0F3C42047
:1031D000C0EB0020C2EB02223F24B0FBF3F0B2FBB5
:1031E000F4F2C1EB0121B1FBF3F100EB022000EBA3
:1031F000014010BD10B500F0E1F800F0A9F8044658
:1032000000F011F8042000F0FBF840F6FF720021F6
:1032100013460846FFF780FF002000F0F1F800F0A9
:103220009CF8204610BD7047FFF73BBE2DE9FF4FCD
:1032300083B01E46DDE91175934689460024DDF80A
:1032400050A0DDF8408043E04046B8F1040F20D0A4
:1032500005DC012809D0B8F1020F37D10FE00828AA
:1032600021D0B8F1100F31D127E0CDE900BA04EB3D
:1032700009012A46139B039801F004FE26E0CDE9DC
:1032800000BA04EB09012A46139B039801F05AFE89
:103290001CE0CDE900BA04EB09012A46139B039810
:1032A00001F0D4FE12E004EB09015B462A46CDF89A
:1032B00000A0039801F04EFF08E004EB09015B4613
:1032C0002A46CDF800A00398FDF74AFB3D44641C54
:1032D000B442B9DB07B0BDE8F08F00002DE9F04142
:1032E0000C4E04461546307B0F46C00705D10EE054
:1032F0003946204600F037F8641CAC42F8DDBDE8E2
:10330000F08172883946204600F028F8641CAC42EF
:10331000F7DDF4E7700B002038B5054C9BB292B294
:10332000648889B280B2009401F05CF838BD000076
:10333000700B002089B280B201F096B900210180A3
:1033400041809F2181807F21C1807047FFF738BF76
:1033500010B5FFF73DFD002010BD704792B289B255
:1033600080B2FDF741BB70B50C460546FFF7E2FFA2
:1033700082B24FF6FF70821A21462846BDE870409F
:10338000FFF7ECBF064910B54A6B824206D048638E
:10339000FFF785FDBDE8104000F004B810BD000047
:1033A000700B002010B50446002001F0E7FF024931
:1033B00021F8104010BD0000700B00200148FFF7FD
:1033C000BDBF0000740B0020064910B50A6B824295
:1033D00006D00863FFF763FDBDE8104000F004B8B5
:1033E00010BD0000700B002010B50446012001F054
:1033F000C5FF024921F8104010BD0000700B0020ED
:10340000064910B50A7B82EA00035B0703D50B88E7
:103410004C880C804B800873104610BD700B002048
:103420002DE9F04116000C46054629D01548B0F9A3
:103430000610A14224DCB0F90A10A14220DBB0F949
:103440000410A9421CDCB0F90800A84218DB0D48A2
:103450000F2E40880DD2FFF7B1FE074621462846C1
:10346000FFF788FE014632463846FFF7F1FCFFF7CA
:1034700016FD024621462846BDE8F041FFF76EBF23
:10348000BDE8F081700B00200D4808B5016841F4DB
:10349000800101600068002200F480000090114665
:1034A0003A20FEF76DFE3A20FEF75CFE0022114640
:1034B0004620FEF765FEBDE808404620FEF752BEF6
:1034C0003038024000B587B01C216846FCF7C3FEC7
:1034D00016484FF02041102201601549416000213B
:1034E0008160C160C0E904128161C161130201629F
:1034F000C0E90913C162016341638163416405202E
:1035000000900F20019002AB042083E807001120F7
:10351000CDE90501002269460448FFF7D9F80028E3
:1035200001D0FDF775FA07B000BD0000D0060020FD
:10353000040100A02DE9F04186B014216846FCF793
:103540008AFE41480024016841F0100101600168D1
:1035500001F010010591016841F00401016001686A
:1035600001F004010591016841F0800101600168EA
:1035700001F080010591016841F0010101600168DD
:1035800001F001010591016841F00201016001684B
:1035900001F002010591016841F008010160006835
:1035A0002A4F00F008000590012204213846FEF75A
:1035B00074FDDFF89C80012202214046FEF76DFD7C
:1035C00001260420CDE90006CDE9026469463846AB
:1035D000FEF784FC7B200325CDE9000569460294B3
:1035E0003846FEF77BFC43F6FF70CDE900056946DF
:1035F00002941848FEF772FC49F6FD10CDE900056B
:10360000694602944046FEF769FC0220CDE90006B7
:10361000CDE9026469464046FEF760FC4FF6FF7054
:10362000CDE90005694602940B48FEF757FC43F2CA
:103630004C00CDE90005694602940848FEF74EFCAF
:1036400006B0BDE8F08100003038024000100240B2
:10365000000002400008024000040240000C02404A
:1036600010B586B000241748009401940294039486
:1036700004944FF080410594016044F29F11C0E929
:10368000011441F28731C0E9031480218161FFF701
:1036900083F808B1FDF7BCF94FF4805000906946FB
:1036A0000848FFF7C2F808B1FDF7B2F9049404A97D
:1036B00004480594FFF74FF8002801D0FDF7A8F95A
:1036C00006B010BD200700200C4810B50A49016063
:1036D0004FF4E1314160002181600C22C160C0E9FA
:1036E00004128161C161FFF76BFA002803D0BDE8C5
:1036F0001040FDF78DB910BD00100140600700209B
:10370000FEE700002DE9F0470024164D93274FF007
:103710007F084FF00A0900BFFCF784FD90FBF7F12A
:1037200007FB1100801D25F8140000BFFCF77AFD8F
:1037300090FBF8F208FB120005EB4406308200BF54
:10374000FCF770FD90FBF9F209FB1200801C30843D
:1037500000BF641C082CDFDB034901204870BDE872
:10376000F08700003C030020000000202DE9F04716
:10377000DFF8408200242DED028BB7EE008AFFEEC9
:10378000008A08F15009A8F1A0068B4DB9E0E0B21B
:1037900000F04CFE03287AD1FCF744FD9B2190FBFE
:1037A000F1F201FB1200001D00EE100A8348B8EE92
:1037B000C00A00EB840787ED000A00BFFCF732FD6A
:1037C0007F2190FBF1F201FB120000EE100A06EBE4
:1037D0008400F8EEC00AC7ED140A97ED000A90EDD8
:1037E000001A30EE410A85ED050A90ED141AB5EE87
:1037F000C00A70EEC10AF1EE10FAC5ED060A12D247
:10380000F5EEC00AF1EE10FA0DDBB1EE401AB4EE9F
:10381000E01AF1EE10FA3BDD08EB8400F1EE600AED
:10382000C0ED008A2CE0B5EEC00AF1EE10FA14DB10
:10383000F5EEC00AF1EE10FA0FD2B1EE601AB4EE56
:10384000C10AF1EE10FA17DCB1EE400A08EB840071
:1038500080EE201A80ED001A49E0B5EEC00AF1EEC4
:1038600010FA20DBF5EEC00AF1EE10FA1BDBB4EE25
:10387000E00AF1EE10FA0BDD08EB840080ED008A1F
:1038800080EE801A09EB840080ED001A33E037E007
:1038900080EE201A08EB840080ED001A09EB84000A
:1038A00080ED008A27E0B5EEC00AF1EE10FA22D2D0
:1038B000F5EEC00AF1EE10FA1DD2B1EE401AF1EEAB
:1038C000601AB4EEE11AF1EE10FA0ADDC1EE800AD8
:1038D00008EB8400C0ED008A09EB8400C0ED000A0B
:1038E00009E081EE200A08EB840080ED000A09EB74
:1038F0008400C0ED008A2878142801D2401C28706A
:10390000641C28788442FFF642AF002432E000278E
:103910002CE000BF06EB840006EB8701D0ED000A27
:1039200091ED001A90ED142AD1ED141A30EEC10A6F
:10393000234972EE612A20EE000A02EEA20A10EE7E
:10394000100A884211DABDEEC20A10EE103ABDEE3E
:10395000E00A10EE102ABDEEE10A10EE101ABDEEDC
:10396000C10A10EE100AFDF7F4FC7F1C287887428C
:10397000D0DB641CC0B28442C9DB002412E000BF6B
:1039800006EB8400022290ED140ABDEEC00A10EE90
:10399000101A90ED000ABDEEC00A10EE100AFDF7F5
:1039A000E9FC641C28788442EADBBDEC028BBDE8AC
:1039B000F08700009C020020000000200C01002085
:1039C000000061442DE9F05FDFF8E0B100242DED47
:1039D000028B4FF09B097F270BF1F00AB7EE008AAC
:1039E000DFF8CC81FFEE008AFCF71CFC4E4690FB12
:1039F000F6F109FB1100001D00EE100A0BEB840527
:103A0000B8EEC00A85ED000A00BFFCF70BFC90FB86
:103A1000F7F107FB110000EE100AB8EEC00A85EDC1
:103A2000140A00BF00BFFCF7FDFB90FBF6F106FB9C
:103A30001100001D00EE100A0AEB8406B8EEC00A61
:103A400086ED000A00BFFCF7EDFB90FBF7F107FBEA
:103A5000110000EE100AF8EEC00AC6ED140A95ED4A
:103A6000000A96ED001A30EE410A88ED030A95ED42
:103A7000141AB5EEC00A71EE600AF1EE10FAC8ED44
:103A8000040A13D2F5EEC00AF1EE10FA0EDBB1EE25
:103A9000401AB4EEE01AF1EE10FA3FDD4548F1EEBF
:103AA000600A00EB8400C0ED008A2EE0B5EEC00A8B
:103AB000F1EE10FA15DBF5EEC00AF1EE10FA10D2B5
:103AC000B1EE601AB4EEC10AF1EE10FA18DCB1EEF4
:103AD000400A384880EE201A00EB840080ED001A7E
:103AE00052E0B5EEC00AF1EE10FA25DBF5EEC00AA1
:103AF000F1EE10FA20DBB4EEE00AF1EE10FA0DDD83
:103B00002C4800EB840080ED008A80EE801A294862
:103B1000503000EB840080ED001A3BE080EE201A6C
:103B2000244800EB840080ED001A2248503000EB5E
:103B3000840080ED008A2DE0B5EEC00AF1EE10FAA7
:103B400028D2F5EEC00AF1EE10FA23D2B1EE401AF7
:103B5000F1EE601AB4EEE11AF1EE10FA0DDDC1EEED
:103B6000800A144800EB8400C0ED008A11485030F0
:103B700000EB8400C0ED000A0CE081EE200A0D4845
:103B800000EB840080ED000A0A48503000EB84000E
:103B9000C0ED008A641C142CFFF626AF052188F8BE
:103BA0000010BDEC028BBDE8F09F00000C0100206E
:103BB000000000209C0200202DE9F047724E0025F5
:103BC00006F1F209DFF8C481C0E000273DE0E8B269
:103BD00000F0E2FC032837D1FCF724FB9F2190FB87
:103BE000F1F201FB120080B200EE100A26F8150077
:103BF00009EB8500B8EE400A80ED000A0020208520
:103C0000FCF710FB052290FBF2F102FB1100401CB7
:103C1000A4F85000FCF706FBC11700EB917121F0EE
:103C20000301401AA4F87800FCF7FCFA0F2190FB7E
:103C3000F1F201FB1200A4F8A00098F80300142888
:103C400002D2401C88F803007F1C06EB4504B4F840
:103C50005000B842BBDC06EB4500B0F8A0000128DC
:103C60000FD9401EA4F8A00009EB8500238D90ED2C
:103C7000000A36F815000021BDEEC00A10EE102A29
:103C800021E0B4F85000238DA0EB80001918002922
:103C90001BDD00EE101A36F8150098ED081AF8EE44
:103CA000C00A00EE100A09EB8502B8EE400A00EEE9
:103CB000810ABDEEC00A10EE100A92ED000ABDEEB8
:103CC000C00A10EE102AFDF744FBB4F8780030B1BA
:103CD00001280CD002282CD0032836D13DE009EB76
:103CE0008500B4F8C820218D90ED000A18E009EB9A
:103CF0008507F7EE000A97ED000AB4F8C820218D79
:103D000030EE200ABCEEC00A10EE100A80B2FCF7BA
:103D10006BFE208DB4F8C820401C97ED000A81B2DC
:103D2000BCEEC00A10EE100A1FFA80F0FCF75CFE31
:103D30000BE009EB8500218D90ED000A0122BDEE1C
:103D4000C00A10EE100AFDF715FB6D1C98F8030071
:103D50008542FFF63AAFBDE8F08709EB8507218D74
:103D600097ED000A0122BDEEC00A10EE100AFDF721
:103D70000BFC97ED000A218D0022BCEEC00A10EE6C
:103D8000100A80B2D2E70000760400200000002074
:103D90002DE9F05F224F0024A0464FF09F0907F164
:103DA000F20A05264FF00F0BFCF73CFA90FBF9F2F4
:103DB00009FB120080B200EE100A27F814000AEB8B
:103DC0008400B8EE400A07EB440580ED000AA5F830
:103DD00028803A35FCF726FA90FBF6F106FB110035
:103DE000401CE882FCF71EFA90FBF6F106FB11007E
:103DF000E887FCF717FA90FBFBF20BFB1200641C40
:103E0000A5F86600142CCFDB0648DFED070AC67064
:103E100090ED020A80EE201A80ED081ABDE8F09FAE
:103E200076040020000000200000FE422DE9F05F33
:103E300000252DED048BDFF86C829B4C90E0E8B2FE
:103E400000F0C8FB03283AD1FCF7ECF9C11700EBEE
:103E5000917121F00301401A401CFCF78FFB08EB25
:103E6000C506C6E9000100BF00BFFCF7DBF914215D
:103E700090FBF1F201FB120005210A3090FBF1F0FA
:103E8000FCF77CFBC6E9140100BFFCF7CBF93C2131
:103E900090FBF1F201FB1200001DFCF76FFBC6E97D
:103EA0001E0100BF9FED810B86ED280B86ED320BC6
:103EB00086ED3C0B2079052801D2401C207108EBCF
:103EC000C50696ED280B9FED7B9B51EC100B53EC38
:103ED000192BA036FCF771FA9FED788B53EC182B59
:103EE000FCF7DDFA41EC100B01F0D2FA16ED0A1BDB
:103EF00051EC100B53EC112BFCF75FFA9FED711B8B
:103F000053EC112BFCF7B2F9C6E90A0196ED000B50
:103F100053EC192B51EC100BFCF74FFA53EC182B08
:103F2000FCF7BDFA41EC100B01F016FB16ED0A8B05
:103F300051EC100B53EC182BFCF73FFA9FED631B71
:103F400053EC112BFCF792F9C6E9140151EC180B54
:103F5000FCF732FB024640215020FDF715FB6D1C9B
:103F600020798542FFF66BAF00279FED5A8BA14663
:103F70006FE0002668E000BF08EBC60408EBC70549
:103F800094ED3C1B95ED3C0B53EC112B51EC100BBD
:103F9000FCF70DFA41EC100B53EC102BFCF70DFA6B
:103FA00094ED321B95ED320B41EC190B53EC112BB8
:103FB00051EC100BFCF7FBF941EC100B53EC102B00
:103FC000FCF7FBF953EC192BFCF750F99FED430B71
:103FD00053EC102BFCF710FB35D295ED000B53EC96
:103FE000182B51EC100BFCF707FB2CD094ED000BB9
:103FF000B0EE481AF0EE681A53EC112B51EC100B8E
:10400000FCF7FAFA1FD095ED3C0B51EC100BFCF7C6
:10401000D3FA95ED320B834651EC100BFCF7CCFA3A
:1040200094ED3C0B824651EC100BFCF7C5FA94ED75
:10403000320B054651EC100BFCF7BEFA5B465246BC
:104040002946FDF786F9761C99F80400864293DB31
:104050007F1C99F804004C4687428ADB00251AE051
:1040600008EBC50696ED000B51EC100BFCF7A4FA1B
:1040700096ED3C0B814651EC100BFCF79DFA96ED4A
:10408000320B074651EC100BFCF796FA4A463946BC
:10409000FDF770F96D1C20798542E1DBBDEC048BE6
:1040A000BDE8F09FB80500200000002000000000DF
:1040B0000000000000000000FA210940000000009C
:1040C0000080664000000000000054400000000036
:1040D00000005040000000000000F03F0000000021
:1040E000000099402DE9F04700242DED028B4FF0A0
:1040F00014081E4F9FED1E8B05264FF03C0900BF94
:10410000FCF790F8C11700EB917121F00301401A00
:10411000401CFCF733FA07EBC405C5E9000100BFFA
:1041200000BFFCF77FF890FBF8F208FB12000A30A2
:1041300090FBF6F0FCF722FAC5E9140100BFFCF78A
:1041400071F890FBF9F209FB1200001DFCF716FA5A
:10415000C5E91E0100BF641C85ED288B052CCFDB53
:1041600005480671BDEC028BBDE8F087B80500205C
:104170000000000000000000000000202DE9F047D2
:1041800000244FF00508414DDFF8049155E0002769
:1041900024E0E0B200F098F903281ED1FCF742F8C1
:1041A000932190FBF1F201FB1200801D25F8140011
:1041B000012171862030A6F8960000BFFCF732F886
:1041C00090FBF8F208FB1200A6F8640099F80210C0
:1041D000192902D2491C89F802107F1C05EB4406FC
:1041E000B6F8C820B2FBF8F108FB1120401CB84219
:1041F000CFDC05EB4400B0F8640005281CD2DFE8F2
:1042000000F0030A15222E00718E35F814000122E9
:10421000FDF7B0F810E0718E35F814000122FDF7BB
:10422000A9F8718E35F81400002203E092B2718E65
:1042300035F81400FCF7D8FB641C99F8020084429E
:10424000A5DBBDE8F08792B2718E35F81400FCF75B
:10425000CBFB708EB6F8C820401C81B211E092B240
:10426000718E35F81400FCF7BFFB708EB6F8C820CD
:10427000401C81B235F81400FCF7B6FBB6F8C82034
:10428000718E35F81400401C80B2D3E77C03002007
:10429000000000202DE9F04700244FF09308124E53
:1042A0004FF001095FF00507FBF7BCFF90FBF8F248
:1042B00008FB1200801D26F8140006EB4405203090
:1042C000A5F83290A5F89600583500BFFBF7AAFF75
:1042D00090FBF7F107FB1100641CA881192CE3DBAC
:1042E00002488770BDE8F0877C03002000000020B2
:1042F00070470000491CF0B48BB22A490025CA88D7
:104300009A4201D0CB80CD61CA69521CCA610407B0
:1043100046D05C4204EB840441F2883707EBC406C4
:10432000B2FBF6FC01240522BCF1000F09D0BCF160
:10433000010F0FD0BCF1020F1AD0BCF1030F2AD12C
:1043400021E0000704D54C708A70CA704D7123E0DB
:10435000CE6121E0400704D50A704C708A704C7120
:104360001AE06FF027004343580000EB470008E0D5
:10437000800704D50A704C70CA70022009E006EB71
:104380004600C86108E0C00705D00A70CA708A708C
:104390000320487100E0CD614879F0BC00F011B80D
:1043A000F0BC70470000002010B5FFF70BFBFFF7D3
:1043B000A9F9FFF76FFFFFF7EBFCBDE81040FFF72F
:1043C00091BE38B1012807D0022807D0032807D1B1
:1043D000FFF72CBDFFF7CAB9FFF7EEBBFFF7CEBE64
:1043E00070470000F0B59F2A059E1BD87F2B19D877
:1043F0009F2817D87F2915D80B4D11E006273C07B9
:1044000027802880072727802980052727800446C2
:1044100002E02E80641CA4B29442FAD9491C89B2ED
:104420009942EBD9F0BD0000000002602049214B09
:1044300001EB800191ED000A10EE102A9A4202DC95
:10444000B1EE000A06E010EE102A1B4B9A4204DB84
:104450009FED1A0A81ED000A12E0D1ED140AF5EE83
:10446000C00AF1EE10FA02D8B7EE000A06E010EE2C
:10447000902A134B9A4205DB9FED120A81ED140A34
:10448000032070470A4AA03202EB800292ED001A24
:10449000074A30EE010AF03202EB800081ED000A9B
:1044A00090ED000A022030EE800A81ED140A704778
:1044B000FC0100200000404000001D4300001C43A0
:1044C0000000FA420000F8422DE9F047304901EBC4
:1044D000400831F81040B8F89620B8F83230161B72
:1044E000C3F17E077F2B02D289469F2C02D3032083
:1044F000BDE8F0874FF0FF31002E02DD4FF00102E2
:1045000001E005DA0A46002F07DD4FF001010AE05D
:1045100003F10103A8F8323038E004DB04F10104B0
:1045200029F8104032E002FB06F501FB07F6DFF840
:1045300064A04FEA450C4FEA4607B54211DB7E1BEB
:104540004AF82060224429F8102001D5F11912E020
:10455000A7EB0C0232444AF820205818A8F8320081
:1045600014E0BCEB06064AF820601944A8F83210A3
:1045700004D506EB0C014AF8201007E0ACEB07016C
:1045800031444AF82010224429F810200220AFE7D5
:104590007C030020A80000200C4901EB4002118D93
:1045A000491C89B21185094AF23202EB8000084A9F
:1045B00090ED000A7F29D2ED080A30EE200A80ED46
:1045C000000A01D9032070470220704776040020BA
:1045D0000000002010B51A4901EBC00494ED140B43
:1045E00094ED281B53EC102B51EC110BFBF73EFE06
:1045F00041EC100B9FED131B84ED280B53EC112B9A
:10460000FCF712F81AD89FED110B9FED121B84EDE9
:10461000280B94ED1E0B53EC112B51EC100BFBF7F8
:1046200025FE41EC100B9FED0D1B84ED1E0B53EC92
:10463000112BFBF7F9FF01D8032010BD022010BD9C
:10464000B805002000000000008076400000000057
:1046500000000000000000000000F03F000000002B
:1046600000005040704700009F2801D87F2901D9E1
:104670000020704706231A071380044B1880072078
:104680001080198005201080188870470000026093
:1046900010B5074C4FF40030A0616420FDF7D2FB49
:1046A0000220A061BDE810406420FDF7CBBB0000F4
:1046B000000002407047FDF7FBBC000030B593B02E
:1046C00030216846FBF7C7FD14210CA8FBF7C3FD9A
:1046D00019480025016841F080510160006800F030
:1046E000805011901548016841F4804101600068D4
:1046F000022400F4804011900120009000040190F9
:104700008001CDE9064008AA0420A82182E8130010
:104710000B906846FDF74EFE0CA90F2081E8310092
:104720004FF4A0500F90E002109005210CA8FDF767
:1047300059FD13B030BD0000403802400070004009
:104740001048016841F4700101600F48016841F0B0
:10475000010101600C4A00210832116002680B4B14
:104760001A400260031D0A4A1A60026822F480227D
:10477000026005480C300160024958068039086023
:104780007047000088ED00E000380240FFFFF6FEB1
:10479000103000240148FEF7B4B8000020070020C4
:1047A000F0B50268254C264D264E274F274B4FF07B
:1047B000804CA04209D0604507D0A84205D0B04245
:1047C00003D0B84201D0984204D122F0700E4A685A
:1047D00042EA0E02A0421BD0604519D0A84217D071
:1047E000B04215D0B84213D0984211D0184DA8420B
:1047F0000ED0184DA8420BD0174DA84208D0174D27
:10480000A84205D0164DA84202D0164DA84203D1A9
:1048100022F44075CA682A434D6922F080022A4377
:1048200002608A68C2620A688262A04201D098422D
:1048300001D10969016301214161F0BD000001401E
:104840000004004000080040000C0040000401404B
:104850000040014000440140004801400018004071
:10486000001C00400020004010B5846842EA03228A
:1048700024F47F440A432243826010BD826822F000
:1048800070020A4342F007018160704710B5036A65
:10489000046A24F001040462846924F0F00444EA08
:1048A000021423F00A020A438461026210BD10B5AB
:1048B000036A23F0100303628369046A23F47043DC
:1048C00043EA023224F0A00343EA0111826101624B
:1048D00010BD10B5806B0021C185C184FEF7E7F8DB
:1048E00010BD0168CA6822F49072CA6001684A6902
:1048F00022F001024A61202180F83A10704710B579
:1049000090F83A10222901D0022010BD8168B1F53B
:10491000805F11D00169002901681FD0496801F04A
:104920007F03816A4A1C82620B70C18D491E090493
:10493000090CC18518D02BE00269816A002A02683F
:10494000526805D0D2B20A80816A491C8162ECE7C4
:10495000C2F308020A80816A891CF7E74A68816A03
:104960004B1C83620A70E0E70168CA6822F02002EB
:10497000CA600168CA6822F48072CA6001684A6924
:1049800022F001024A61202180F83A10FEF7C0F9B6
:10499000002010BD2DE9F041044600680169E2687D
:1049A00021F44051114301612169A068E269084383
:1049B0006169114322680843D16849F20C63994345
:1049C0000143D16020684169A26921F4407111431B
:1049D0004161E2696425B2F5004F97489749226822
:1049E0004FF032083FD08A4201D082427CD1FDF79D
:1049F000A1FC00EBC00101EB001061688900B0FB75
:104A0000F1F6FDF797FC00EBC00101EB00106168C7
:104A10008900B0FBF1F0B0FBF5F06FF018014843EE
:104A200006EB800108EB0110B0FBF5F000F0F0069A
:104A3000FDF780FC00EBC00101EB0010616889000C
:104A4000B0FBF1F0B0FBF5F006EB0016FDF772FCE1
:104A500000EBC00101EB001061688900B0FBF1F7C9
:104A6000FDF768FCD2E08A4201D082423DD1FDF7D9
:104A700061FC00EBC00101EB001061684900B0FB74
:104A8000F1F0B0FBF5F00601FDF754FC00EBC001BE
:104A900001EB001061684900B0FBF1F7FDF74AFC3B
:104AA00000EBC00101EB001061684900B0FBF1F0C0
:104AB000B0FBF5F06FF01801484307EB800108EBFD
:104AC000C100B0FBF5F000F0F80006EB4006FDF782
:104AD00031FC00EBC00101EB001061684900B0FB44
:104AE000F1F7FDF727FC3CE055E0FDF713FC00EB88
:104AF000C00101EB001061684900B0FBF1F0B0FBB0
:104B0000F5F00601FDF706FC00EBC00101EB00101B
:104B100061684900B0FBF1F7FDF7FCFB00EBC00159
:104B200001EB001061684900B0FBF1F0B0FBF5F05B
:104B30006FF01801484307EB800108EBC100B0FBA0
:104B4000F5F000F0F80006EB4006FDF7E3FB00EBA4
:104B5000C00101EB001061684900B0FBF1F7FDF7FF
:104B6000D9FB00EBC00101EB001061684900B0FB0C
:104B7000F1F0B0FBF5F06FF01801484307EB80014E
:104B800008EBC100B0FBF5F000F0070021683044ED
:104B90008860BDE8F081FDF7BDFB00EBC00101EBD3
:104BA000001061688900B0FBF1F6FDF7B3FB00EB84
:104BB000C00101EB001061688900B0FBF1F0B0FBAF
:104BC000F5F06FF01801484306EB800108EB011087
:104BD000B0FBF5F000F0F006FDF79CFB00EBC00128
:104BE00001EB001061688900B0FBF1F0B0FBF5F05B
:104BF00006EB0016FDF78EFB00EBC00101EB001089
:104C000061688900B0FBF1F7FDF784FB00EBC001A0
:104C100001EB001061688900B0FBF1F0B0FBF5F02A
:104C20006FF01801484307EB800108EB0110B0FB5F
:104C3000F5F000F00F00A9E700140140001001405A
:104C400090F83910212901D0022070478168B1F510
:104C5000805F016A0BD04A1C0262026809785160C9
:104C6000C18C491E0904090CC1840ED017E00988C3
:104C70000268C1F30801516001690029016A02D08C
:104C8000491C0162ECE7891CFBE70168CA6822F055
:104C90008002CA600068C16841F04001C160002024
:104CA00070472DE9F041984617460E460446069D8A
:104CB0001DE0681C1BD02DB1FDF7F4F9A0EB080036
:104CC000A84214D92068C16821F4D071C16020685D
:104CD000416921F001014161202084F8390084F804
:104CE0003A00002084F838000320BDE8F0812068F5
:104CF000006836EA000004D00020B842D9D0002075
:104D0000F3E70120F9E700000148FDF7D1BE0000FC
:104D100060070020FEE700002DE9F05F9946144689
:104D20008A460546FCF752FCDFF8A080064698F854
:104D30003C0010FB06F0C7B20120FCF7C7FC83461D
:104D4000A54202DA2846214601E02046294698F885
:104D50003D2042B1C21BC81998F83C1092FBF1F2F9
:104D600090FBF1F109E0821B98F83C003144454387
:104D700044430AFB00FA09FB00F91046FCF70AFB62
:104D80003846FCF7ABFC4B46224651462846FBF71B
:104D900037FFFCF7E1FABBF1000F0ED198F83C00A9
:104DA00010FB06F047083A4651462846FCF794F8AF
:104DB0003A4649462046FCF78FF83046FCF78EFC11
:104DC0005846BDE8F05FFCF781BC0000700B002086
:104DD00030B50B4C23680C2B10DA0A4A190009D0A5
:104DE00002EB410535F9025C854203DB22F81150E4
:104DF000491EF5D122F811005B1C236030BD000074
:104E00006C000020580B00200120704710B5074CA3
:104E1000D4E901010A1A0021521C2068FCF7E6FCC3
:104E20000348810CC4E90301606110BD400000200B
:104E300001C0FFFFF7B5114C0D46206920B11146A6
:104E4000FCF71CFC002806D0A069006920B182682C
:104E5000294600989047FEBD094E0BE06846FCF7D6
:104E60004DFC0746A069016838468847316809B19A
:104E7000384688476D1EF1D5FEBD0000700B00203E
:104E8000740000202DE9F05F1C468B46DDE90A71B5
:104E900005192B48B1F80090B1F80280007B164646
:104EA00010F003014FF0800013D001292DD002290A
:104EB00024D18146317829FA04F0014204D04246D7
:104EC00059462846FEF74AFA641C6D1C082C17D078
:104ED00018E0824631782AFA04F0014201D04246B5
:104EE00000E04A4628466D1C5946FEF737FA641C16
:104EF000082C01D10024761C7F1EEBD1BDE8F09F69
:104F00000024761C7F1ED5D1F8E780464FF6FF7946
:104F1000317828FA04F0014209D059462846FEF7B4
:104F200009FAA9EB000259462846FEF717FA641C55
:104F30006D1C082C01D10024761C7F1EE8D1DDE712
:104F4000700B00202DE9F05F1C4605193E488B468A
:104F5000DDE90A79007B167810F0030190464FF0E6
:104F6000C0001AD0022935D15FEA090153D0824628
:104F7000C4F103004100C1F106022AFA02F03040F8
:104F8000C84005D039F8102059462846FEF7E6F902
:104F9000641C6D1C042C38D03AE05FEA09011BD078
:104FA0004FEA000AC4F103004100C1F106022AFAE7
:104FB00002F03040C840594639F8102028466D1C90
:104FC000FEF7CCF9641C042C02D118F8016F002400
:104FD0007F1EE7D1BDE8F09F4FEA0009C4F103004E
:104FE0004000C0F1060129FA01F23240C2402846D1
:104FF0006D1C5946FEF7B2F9641C042C02D118F856
:10500000016F00247F1EE9D1E4E718F8016F002446
:105010007F1EADD1DEE78146C4F103004000C0F140
:10502000060129FA01F23240C24003D0594628460F
:10503000FEF794F9641C6D1C042C02D118F8016F62
:1050400000247F1EE8D1C5E7700B00202DE9F05F3A
:105050001C4605193E488B46DDE90A79007B167827
:1050600010F0030190464FF0F0001AD0022935D11C
:105070005FEA090153D08246C4F101008100C1F109
:1050800004022AFA02F03040C84005D039F8102056
:1050900059462846FEF762F9641C6D1C022C38D074
:1050A0003AE05FEA09011BD04FEA000AC4F10100AF
:1050B0008100C1F104022AFA02F03040C84059468A
:1050C00039F8102028466D1CFEF748F9641C022CA4
:1050D00002D118F8016F00247F1EE7D1BDE8F09FD0
:1050E0004FEA0009C4F101008000C0F1040129FA6F
:1050F00001F23240C24028466D1C5946FEF72EF997
:10510000641C022C02D118F8016F00247F1EE9D123
:10511000E4E718F8016F00247F1EADD1DEE7814679
:10512000C4F101008000C0F1040129FA01F232400B
:10513000C24003D059462846FEF710F9641C6D1C86
:10514000022C02D118F8016F00247F1EE8D1C5E7B8
:10515000700B00202DE9F04106462148069F1C46B1
:10516000007B1546884610F0030003D002280FD1BB
:1051700037BB31E057B915E02878414637F81020A1
:105180003046FEF7EBF8641E6D1C761C002CF3DC39
:10519000BDE8F0812A7841463046FEF7DFF8641E0C
:1051A0006D1C761C002CF5DCF2E7287828B137F866
:1051B000102041463046FEF7D1F8641E6D1C761C67
:1051C000002CF2DCE4E72A781AB141463046FEF7BB
:1051D000C5F8641E6D1C761C002CF4DCD8E70000BA
:1051E000700B00202DE9F041054614468846AA427E
:1051F00059DB2E4F2E4E97F83C1098FBF1F0F168DA
:10520000884206D000F064F897F83C1098FBF1F063
:10521000F06097F83C00326995FBF0F394FBF0F1F5
:10522000934200DA33617269914200DD7161726804
:10523000934201DA00FB02F5B368994203DD5B1C7F
:1052400000FB03F4641EAC422DDB95FBF0F1A1EBF7
:10525000020894FBF0F1A1EB020CACEB08033168FF
:105260005B1C4144012B06D008EB0206761C46432A
:10527000701B0D7807E00A78601B401C104411E099
:10528000087897F83C505B1E284401F8010B012B6D
:10529000F6DC0CEB020097F83C2000FB12400A7889
:1052A000401C10440870BDE8F0810000700B002025
:1052B00040000020034A527D002A01D1FBF7A6BD21
:1052C00070470000700B0020017001207047000043
:1052D0002DE9F047DFF89480DFF89490D8F8142097
:1052E000D8F80410571A99F83C2012FB02F6D8F8A7
:1052F0001000441A33E0D8F800204146105D68B32E
:10530000B0421CD1254604E050194078B04202D189
:105310006D1CBD42F8DB4868A54208D08B69421974
:1053200020441B68D8F80C1098472C4616E0D9F892
:1053300038202044D8F80C10526890470EE0C0EB9B
:10534000001006EBD67200EB620090FBF6F0C2B2E2
:105350004868D8F80C102044FEF762F8641CBC4280
:10536000C9DDBDE8F047FFF751BD00004000002057
:10537000700B002000787047012070470249097BBC
:10538000490700D5401E7047700B00200149488432
:1053900000207047700B002001498884002070476E
:1053A000700B00201C49897D012906D002290ED0EE
:1053B000032918D0042914D11EE0801DC11700EB69
:1053C000117121F00F01401A0C2808DB09E0C11708
:1053D00000EB917121F00301401A022801DA01204B
:1053E000704700207047142190FBF1F201FB12007E
:1053F0000C28F4DB10380BE0182190FBF1F201FBD4
:1054000012000C28EBDBA0F110010229E7D31438BD
:105410000228E6D2E3E70000700B00200FB4054B32
:1054200010B503A9044A029800F028FE10BC5DF8EC
:1054300014FB0000C56700088000002003B4019839
:105440004100009850EAC12018BF04204A0D18BF3F
:1054500040F0010040F2FF72B2EB515F08BF40F034
:105460000200012808BF052002B070470907090E95
:10547000002804DB00F1E02080F80014704700F001
:105480000F0000F1E02080F8141D704700000000BC
:1054900010B52F499FED2C1B2DED020B84B0059804
:1054A00020F000408842D8BF9DED040B2DDD294936
:1054B000884209D1049840B94FF0010000F0D4FCB3
:1054C00000F0A2FC06B010BD05DB9DED040B00F062
:1054D0008FFC06B010BD68469DED040B00F0A0F8EF
:1054E00010F0030004BF9DED021B9DED000B0CD0DE
:1054F00001280ED09DED021B9DED000B022817D058
:10550000012000F0DDFB06B010BD00F0A5FA06B0EA
:1055100010BD9DED021B9DED000B012000F0D0FBA6
:1055200051EC100B81F0004106B041EC100B10BDA6
:1055300000F092FA51EC100B81F0004106B041EC02
:10554000100B10BD00000000000000000000000073
:10555000FB21E93F0000F07F10B52F499FED2C1B88
:105560002DED020B84B0059820F000408842DCBF8E
:1055700000209DED040B32DD2849884209D10498B2
:1055800040B94FF0010000F06FFC00F03DFC06B0A8
:1055900010BD05DB9DED040B00F02AFC06B010BD2C
:1055A00068469DED040B00F03BF810F0030011D0AD
:1055B000012818D09DED021B9DED000B02281AD08A
:1055C00000F04AFA51EC100B81F0004106B041ECBA
:1055D000100B10BD9DED021B9DED000B012000F096
:1055E0006FFB06B010BD9DED021B9DED000B00F0A2
:1055F00033FA06B010BD012000F062FB51EC100B35
:1056000081F0004106B041EC100B10BD000000001D
:105610000000000000000000FB21E93F0000F07FD7
:105620002DE9F14F04462DED020B2DED088B8AB0CC
:105630009FEDE70B80ED020B139EE74826F0004537
:1056400085420ADC9DED120B002084ED000B0AB0B0
:10565000BDEC088B03B0BDE8F08FE0489FEDE0ABF8
:105660009FEDE1BBA84247DDE14F9FEDE39B9FED3E
:10567000E48B9DED120B53EC1A2B51EC100B002E0A
:105680001CDDFAF794FE41EC100BBD4208D053EC40
:105690001B2B51EC100BFAF78AFEC4E900010BE05A
:1056A00053EC192B51EC100BFAF781FE53EC182B2D
:1056B000FAF77DFEC4E900010120C8E7FAF7D6FD3C
:1056C00041EC100BBD4208D053EC1B2B51EC100BDE
:1056D000FAF7CCFDC4E900010BE053EC192B51ECB7
:1056E000100BFAF7C3FD53EC182BFAF7BFFDC4E912
:1056F00000014FF0FF30AAE7C348A84279DB9DEDD7
:10570000120B51EC100B01F050F841EC180B9FED0F
:10571000C00B53EC102BFAF750FE9FEDBF1B53EC60
:10572000112BFAF7A3FDFAF747FF0746FAF726FF12
:1057300041EC190B53EC1A2BFAF73FFE53EC182BE4
:10574000FAF738FE41EC180B53EC1B2B51EC190BFC
:10575000FAF733FEDFF8C8A241EC100B4FEA1558F8
:105760000125FA4453EC102B51EC180BFAF71FFEED
:10577000032DC4E900013DD0C1F30A5005EB4511EA
:10578000A8EB00001139814234DA0AEB051BB0EEB8
:1057900048AA9BED000BF0EE68AA53EC102B51ECDD
:1057A000190BFAF70AFE41EC1B0B51EC1A0B53ECE8
:1057B0001B2BFAF7FCFD41EC180B51EC1A0B53ECC8
:1057C000182BFAF7F4FD53EC1B2BFAF7F0FD9BEDC9
:1057D000020B41EC1A0B53EC102B51EC190BFAF79E
:1057E000ECFD53EC1A2BFAF7E2FD41EC100B6D1CAB
:1057F000B8E70EE0002EA8BF3846BFF628AF94EDFC
:10580000000B51EC100B81F00041C4E9000178421B
:105810001DE7C6F3130040F4801EC6F30A50A0F241
:10582000F530471100F01F05C5F12000DDF848B044
:1058300008900020069007900520EC467949002D3D
:1058400007EB0002794408BF51F8221009D051F843
:10585000223001EB8201AB404A68089922FA01F13B
:105860001943A1FB0E26A1FB0B131A449A4234BF25
:105870000123002303EB06080CEB8003D3E901A608
:105880000E448E4234BF0121002192448A4411B15A
:10589000924502D903E0924501D2012100E00021A6
:1058A000C3E901A641444CF82010011EA0F10100FB
:1058B000C4DC029800F10050850F0298DDE903670F
:1058C0008000DDF81480FAF759FE41EC1A0B3046DF
:1058D000FAF765FE9FED541B53EC112BFAF76DFDA3
:1058E00041EC1B0B3846FAF75AFE9FED511B53EC67
:1058F000112BFAF762FD41EC180B4046FAF74FFE08
:105900009FED4D1B53EC112BFAF757FD41EC190B92
:1059100051EC180B53EC192BFAF7A8FC53EC1B2B8A
:10592000FAF7A4FC53EC1A2BFAF7A0FCCDE9080116
:10593000002008909DED080B53EC1A2B51EC100B36
:10594000FAF735FD53EC1B2BFAF731FD53EC182B0E
:10595000FAF72DFD53EC192BFAF72CFD9FED381BB0
:1059600053EC112BFAF729FD9FED370B41EC180B87
:1059700053EC102B9DED080B51EC100BFAF71DFDAD
:1059800053EC182BFAF772FC9FED310B41EC180B1E
:1059900053EC102B9DED080B51EC100BFAF70DFD9D
:1059A00053EC182BFAF762FC41EC100B139810F033
:1059B000004F06D06D4251EC100B81F0004141ECDC
:1059C000100B284684ED000B41E6000000000000AB
:1059D0000000000000000000FB21E93F7CD90240EC
:1059E00000004054FB21F93F3163621A61B4D03D9D
:1059F000FB21F93F000000000000601A61B4D03DB7
:105A00007370032E8A19A33BFB213941000000006B
:105A100083C8C96D305FE43F000000000000E03F34
:105A20007A2B0000C82A0000000000000000103E91
:105A3000000000000000103C000000000000103AD0
:105A4000182D4454FB21F93D3326A611460B113C79
:105A500000000054FB21F93D10B52DED040B2DED98
:105A6000088B82B0B0EE419AF0EE619A0B9820F06C
:105A700000449FED4BABB4F1795F11DA9DED0A0B59
:105A800051EC100BFAF798FD002801BFB0EE4A0A5E
:105A9000F0EE6A0A02B0BDEC088B04BF04B010BD82
:105AA0009DED0A0B53EC102B51EC100BFAF785FC13
:105AB00041EC180B3C480621B0EE480AF0EE680AAB
:105AC000784400F081F853EC182B51EC100BFAF7E6
:105AD00074FC9DED0A0B41EC1B0B53EC192B51ECA4
